{
  "contractName": "MedicineRegistry",
  "abi": [
    {
      "anonymous": false,
      "inputs": [
        {
          "indexed": false,
          "internalType": "string",
          "name": "qrCode",
          "type": "string"
        },
        {
          "indexed": false,
          "internalType": "uint256",
          "name": "manufacturerId",
          "type": "uint256"
        }
      ],
      "name": "MedicineRegistered",
      "type": "event"
    },
    {
      "inputs": [
        {
          "internalType": "string",
          "name": "",
          "type": "string"
        }
      ],
      "name": "medicines",
      "outputs": [
        {
          "internalType": "uint256",
          "name": "manufacturerId",
          "type": "uint256"
        },
        {
          "internalType": "string",
          "name": "manufacturerName",
          "type": "string"
        },
        {
          "internalType": "string",
          "name": "medicineName",
          "type": "string"
        },
        {
          "internalType": "string",
          "name": "qrCode",
          "type": "string"
        },
        {
          "internalType": "string",
          "name": "medicineConstituents",
          "type": "string"
        },
        {
          "internalType": "string",
          "name": "tracker",
          "type": "string"
        }
      ],
      "stateMutability": "view",
      "type": "function"
    },
    {
      "inputs": [
        {
          "internalType": "uint256",
          "name": "_manufacturerId",
          "type": "uint256"
        },
        {
          "internalType": "string",
          "name": "_manufacturerName",
          "type": "string"
        },
        {
          "internalType": "string",
          "name": "_medicineName",
          "type": "string"
        },
        {
          "internalType": "string",
          "name": "_qrCode",
          "type": "string"
        },
        {
          "internalType": "string",
          "name": "_medicineConstituents",
          "type": "string"
        },
        {
          "internalType": "string",
          "name": "_tracker",
          "type": "string"
        }
      ],
      "name": "registerMedicine",
      "outputs": [],
      "stateMutability": "nonpayable",
      "type": "function"
    },
    {
      "inputs": [
        {
          "internalType": "string",
          "name": "_qrCode",
          "type": "string"
        }
      ],
      "name": "getMedicineDetails",
      "outputs": [
        {
          "internalType": "uint256",
          "name": "manufacturerId",
          "type": "uint256"
        },
        {
          "internalType": "string",
          "name": "manufacturerName",
          "type": "string"
        },
        {
          "internalType": "string",
          "name": "medicineName",
          "type": "string"
        },
        {
          "internalType": "string",
          "name": "medicineConstituents",
          "type": "string"
        },
        {
          "internalType": "string",
          "name": "tracker",
          "type": "string"
        }
      ],
      "stateMutability": "view",
      "type": "function"
    }
  ],
  "bytecode": "0x608060405234801561001057600080fd5b506111b6806100206000396000f3fe608060405234801561001057600080fd5b50600436106100415760003560e01c806321b9da9914610046578063adcd1dcd1461007b578063d723ee28146100af575b600080fd5b610060600480360381019061005b919061099c565b6100cb565b60405161007296959493929190610a7d565b60405180910390f35b6100956004803603810190610090919061099c565b6103c5565b6040516100a6959493929190610b01565b60405180910390f35b6100c960048036038101906100c49190610b9c565b61068e565b005b60008180516020810182018051848252602083016020850120818352809550505050505060009150905080600001549080600101805461010a90610ce4565b80601f016020809104026020016040519081016040528092919081815260200182805461013690610ce4565b80156101835780601f1061015857610100808354040283529160200191610183565b820191906000526020600020905b81548152906001019060200180831161016657829003601f168201915b50505050509080600201805461019890610ce4565b80601f01602080910402602001604051908101604052809291908181526020018280546101c490610ce4565b80156102115780601f106101e657610100808354040283529160200191610211565b820191906000526020600020905b8154815290600101906020018083116101f457829003601f168201915b50505050509080600301805461022690610ce4565b80601f016020809104026020016040519081016040528092919081815260200182805461025290610ce4565b801561029f5780601f106102745761010080835404028352916020019161029f565b820191906000526020600020905b81548152906001019060200180831161028257829003601f168201915b5050505050908060040180546102b490610ce4565b80601f01602080910402602001604051908101604052809291908181526020018280546102e090610ce4565b801561032d5780601f106103025761010080835404028352916020019161032d565b820191906000526020600020905b81548152906001019060200180831161031057829003601f168201915b50505050509080600501805461034290610ce4565b80601f016020809104026020016040519081016040528092919081815260200182805461036e90610ce4565b80156103bb5780601f10610390576101008083540402835291602001916103bb565b820191906000526020600020905b81548152906001019060200180831161039e57829003601f168201915b5050505050905086565b6000606080606080600080876040516103de9190610d51565b908152602001604051809103902090506000816000015411610435576040517f08c379a000000000000000000000000000000000000000000000000000000000815260040161042c90610db4565b60405180910390fd5b80600001548160010182600201836004018460050183805461045690610ce4565b80601f016020809104026020016040519081016040528092919081815260200182805461048290610ce4565b80156104cf5780601f106104a4576101008083540402835291602001916104cf565b820191906000526020600020905b8154815290600101906020018083116104b257829003601f168201915b505050505093508280546104e290610ce4565b80601f016020809104026020016040519081016040528092919081815260200182805461050e90610ce4565b801561055b5780601f106105305761010080835404028352916020019161055b565b820191906000526020600020905b81548152906001019060200180831161053e57829003601f168201915b5050505050925081805461056e90610ce4565b80601f016020809104026020016040519081016040528092919081815260200182805461059a90610ce4565b80156105e75780601f106105bc576101008083540402835291602001916105e7565b820191906000526020600020905b8154815290600101906020018083116105ca57829003601f168201915b505050505091508080546105fa90610ce4565b80601f016020809104026020016040519081016040528092919081815260200182805461062690610ce4565b80156106735780601f1061064857610100808354040283529160200191610673565b820191906000526020600020905b81548152906001019060200180831161065657829003601f168201915b50505050509050955095509550955095505091939590929450565b60008351116106d2576040517f08c379a00000000000000000000000000000000000000000000000000000000081526004016106c990610e20565b60405180910390fd5b600080846040516106e39190610d51565b90815260200160405180910390206000015414610735576040517f08c379a000000000000000000000000000000000000000000000000000000000815260040161072c90610eb2565b60405180910390fd5b60006040518060c00160405280888152602001878152602001868152602001858152602001848152602001838152509050806000856040516107779190610d51565b90815260200160405180910390206000820151816000015560208201518160010190816107a4919061107e565b5060408201518160020190816107ba919061107e565b5060608201518160030190816107d0919061107e565b5060808201518160040190816107e6919061107e565b5060a08201518160050190816107fc919061107e565b509050507f3713f8651ad52c891038609b6694bb436c057afcbd7872a9cc1e1f3ecaaa91d68488604051610831929190611150565b60405180910390a150505050505050565b6000604051905090565b600080fd5b600080fd5b600080fd5b600080fd5b6000601f19601f8301169050919050565b7f4e487b7100000000000000000000000000000000000000000000000000000000600052604160045260246000fd5b6108a982610860565b810181811067ffffffffffffffff821117156108c8576108c7610871565b5b80604052505050565b60006108db610842565b90506108e782826108a0565b919050565b600067ffffffffffffffff82111561090757610906610871565b5b61091082610860565b9050602081019050919050565b82818337600083830152505050565b600061093f61093a846108ec565b6108d1565b90508281526020810184848401111561095b5761095a61085b565b5b61096684828561091d565b509392505050565b600082601f83011261098357610982610856565b5b813561099384826020860161092c565b91505092915050565b6000602082840312156109b2576109b161084c565b5b600082013567ffffffffffffffff8111156109d0576109cf610851565b5b6109dc8482850161096e565b91505092915050565b6000819050919050565b6109f8816109e5565b82525050565b600081519050919050565b600082825260208201905092915050565b60005b83811015610a38578082015181840152602081019050610a1d565b60008484015250505050565b6000610a4f826109fe565b610a598185610a09565b9350610a69818560208601610a1a565b610a7281610860565b840191505092915050565b600060c082019050610a9260008301896109ef565b8181036020830152610aa48188610a44565b90508181036040830152610ab88187610a44565b90508181036060830152610acc8186610a44565b90508181036080830152610ae08185610a44565b905081810360a0830152610af48184610a44565b9050979650505050505050565b600060a082019050610b1660008301886109ef565b8181036020830152610b288187610a44565b90508181036040830152610b3c8186610a44565b90508181036060830152610b508185610a44565b90508181036080830152610b648184610a44565b90509695505050505050565b610b79816109e5565b8114610b8457600080fd5b50565b600081359050610b9681610b70565b92915050565b60008060008060008060c08789031215610bb957610bb861084c565b5b6000610bc789828a01610b87565b965050602087013567ffffffffffffffff811115610be857610be7610851565b5b610bf489828a0161096e565b955050604087013567ffffffffffffffff811115610c1557610c14610851565b5b610c2189828a0161096e565b945050606087013567ffffffffffffffff811115610c4257610c41610851565b5b610c4e89828a0161096e565b935050608087013567ffffffffffffffff811115610c6f57610c6e610851565b5b610c7b89828a0161096e565b92505060a087013567ffffffffffffffff811115610c9c57610c9b610851565b5b610ca889828a0161096e565b9150509295509295509295565b7f4e487b7100000000000000000000000000000000000000000000000000000000600052602260045260246000fd5b60006002820490506001821680610cfc57607f821691505b602082108103610d0f57610d0e610cb5565b5b50919050565b600081905092915050565b6000610d2b826109fe565b610d358185610d15565b9350610d45818560208601610a1a565b80840191505092915050565b6000610d5d8284610d20565b915081905092915050565b7f4d65646963696e65206e6f7420666f756e640000000000000000000000000000600082015250565b6000610d9e601283610a09565b9150610da982610d68565b602082019050919050565b60006020820190508181036000830152610dcd81610d91565b9050919050565b7f515220636f64652063616e6e6f7420626520656d707479000000000000000000600082015250565b6000610e0a601783610a09565b9150610e1582610dd4565b602082019050919050565b60006020820190508181036000830152610e3981610dfd565b9050919050565b7f4d65646963696e652077697468207468697320515220636f646520616c72656160008201527f6479207265676973746572656400000000000000000000000000000000000000602082015250565b6000610e9c602d83610a09565b9150610ea782610e40565b604082019050919050565b60006020820190508181036000830152610ecb81610e8f565b9050919050565b60008190508160005260206000209050919050565b60006020601f8301049050919050565b600082821b905092915050565b600060088302610f347fffffffffffffffffffffffffffffffffffffffffffffffffffffffffffffffff82610ef7565b610f3e8683610ef7565b95508019841693508086168417925050509392505050565b6000819050919050565b6000610f7b610f76610f71846109e5565b610f56565b6109e5565b9050919050565b6000819050919050565b610f9583610f60565b610fa9610fa182610f82565b848454610f04565b825550505050565b600090565b610fbe610fb1565b610fc9818484610f8c565b505050565b5b81811015610fed57610fe2600082610fb6565b600181019050610fcf565b5050565b601f8211156110325761100381610ed2565b61100c84610ee7565b8101602085101561101b578190505b61102f61102785610ee7565b830182610fce565b50505b505050565b600082821c905092915050565b600061105560001984600802611037565b1980831691505092915050565b600061106e8383611044565b9150826002028217905092915050565b611087826109fe565b67ffffffffffffffff8111156110a05761109f610871565b5b6110aa8254610ce4565b6110b5828285610ff1565b600060209050601f8311600181146110e857600084156110d6578287015190505b6110e08582611062565b865550611148565b601f1984166110f686610ed2565b60005b8281101561111e578489015182556001820191506020850194506020810190506110f9565b8683101561113b5784890151611137601f891682611044565b8355505b6001600288020188555050505b505050505050565b6000604082019050818103600083015261116a8185610a44565b905061117960208301846109ef565b939250505056fea26469706673582212204893d9c0dca5caa1908df431b46e659bd16f82dcd7b15d22db56500af0e8c49f64736f6c63430008130033",
  "immutableReferences": {},
  "source": "// SPDX-License-Identifier: MIT\r\npragma solidity >=0.5.0 <0.9.0;\r\n\r\n \r\n//these are all the details we want to keep in the transaction block\r\ncontract MedicineRegistry {\r\n    struct Medicine {\r\n        uint manufacturerId;\r\n        string manufacturerName;\r\n        string medicineName;\r\n        string qrCode;\r\n        string medicineConstituents;\r\n        string tracker;\r\n    }\r\n\r\n\r\n    mapping(string => Medicine) public medicines;\r\n    event MedicineRegistered(string qrCode, uint manufacturerId);\r\n    //this is how we are adding a new med\r\n    function registerMedicine(\r\n        uint _manufacturerId,\r\n        string memory _manufacturerName,\r\n        string memory _medicineName,\r\n        string memory _qrCode,\r\n        string memory _medicineConstituents,\r\n        string memory _tracker\r\n    ) public {\r\n        //making sure only valide medicines are entered\r\n        require(bytes(_qrCode).length > 0, \"QR code cannot be empty\");\r\n        require(medicines[_qrCode].manufacturerId == 0, \"Medicine with this QR code already registered\");\r\n        //assigning and initialising variables using _\r\n        Medicine memory newMedicine = Medicine({\r\n            manufacturerId: _manufacturerId,\r\n            manufacturerName: _manufacturerName,\r\n            medicineName: _medicineName,\r\n            qrCode: _qrCode,\r\n            medicineConstituents: _medicineConstituents,\r\n            tracker: _tracker\r\n        });\r\n        medicines[_qrCode] = newMedicine;\r\n        emit MedicineRegistered(_qrCode, _manufacturerId);\r\n    }\r\n    function getMedicineDetails(string memory _qrCode) public view returns (\r\n        uint manufacturerId,\r\n        string memory manufacturerName,\r\n        string memory medicineName,\r\n        string memory medicineConstituents,\r\n        string memory tracker\r\n    ) {\r\n        Medicine storage medicine = medicines[_qrCode];\r\n        require(medicine.manufacturerId > 0, \"Medicine not found\");\r\n\r\n        return (\r\n            medicine.manufacturerId,\r\n            medicine.manufacturerName,\r\n            medicine.medicineName,\r\n            medicine.medicineConstituents,\r\n            medicine.tracker\r\n        );\r\n    }\r\n}",
  "sourcePath": "C:\\Users\\ACER\\OneDrive - Amrita university\\Desktop\\testBlock\\contracts\\MedicineRegistry.sol",
  "compiler": {
    "name": "solc",
    "version": "0.8.19+commit.7dd6d404.Emscripten.clang"
  },
  "schemaVersion": "3.4.16",
  "updatedAt": "2023-10-28T13:37:24.135Z",
  "devdoc": {
    "kind": "dev",
    "methods": {},
    "version": 1
  },
  "userdoc": {
    "kind": "user",
    "methods": {},
    "version": 1
  }
}